:100000000C942A000C9491000C94BA000C94E30018
:100010000C943C000C943C000C943C000C943C0070
:100020000C943C000C943C000C943C000C943C0060
:100030000C943C000C943C000C943C000C943C0050
:100040000C943C000C943C000C943C000C943C0040
:100050000C943C0011241FBECFE5D8E0DEBFCDBF1D
:1000600020E0A0E6B0E001C01D92A636B207E1F79D
:100070000E940C010C94D9030C94000087B1806499
:1000800087B987B18F7787B987B18F7D87B986B1F7
:10009000806886B986B1866086B90895883030F464
:1000A00097B1907E97B997B1892B87B986B1806453
:1000B00086B9349BFECF83E08A95F1F7000024B126
:1000C00085B190E0982F8827820F911D0895843084
:1000D00038F56130A1F4813049F028F0823049F0E0
:1000E000833051F008958FEF8ABB08958FEF87BB5F
:1000F00008958FEF84BB08958FEF81BB0895611140
:100100000FC0813041F028F0823039F0833039F06F
:1001100008951ABA089517BA089514BA089511BA2D
:1001200008951F920F920FB60F9211242F933F93B1
:100130004F935F936F937F938F939F93AF93BF93EF
:10014000EF93FF93E0916400F0916500309709F020
:100150000995FF91EF91BF91AF919F918F917F9101
:100160006F915F914F913F912F910F900FBE0F9024
:100170001F9018951F920F920FB60F9211242F9374
:100180003F934F935F936F937F938F939F93AF931F
:10019000BF93EF93FF93E0916200F091630030977B
:1001A00009F00995FF91EF91BF91AF919F918F91C8
:1001B0007F916F915F914F913F912F910F900FBE63
:1001C0000F901F9018951F920F920FB60F92112447
:1001D0002F933F934F935F936F937F938F939F934F
:1001E000AF93BF93EF93FF93E0916000F0916100B4
:1001F000309709F00995FF91EF91BF91AF919F91D1
:100200008F917F916F915F914F913F912F910F90BF
:100210000FBE0F901F901895CF93DF93CDB7DEB729
:100220002A970FB6F894DEBF0FBECDBFFE01319600
:100230008AE0DF011D928A95E9F760E080E00E9484
:1002400067000E94C3010E943E0080E00E944E00B1
:100250009A838983FF24F39411C00F2D10E083E06B
:100260008F0D0E944E00000F111FE1E0F0E0EC0F37
:10027000FD1FE00FF11F91838083F394B4E0BF155D
:1002800060F72B813C81253FE1E03E07A0F08D81A6
:100290009E81843F914078F48F819885843F91407E
:1002A00050F489859A85843F914028F486E40E9421
:1002B000CC0180E048C08D819E81853FB1E09B07E5
:1002C00098F0243FE1E03E0778F44F815885443FA1
:1002D000514050F449855A85443F514028F482E406
:1002E0000E94CC0180E02FC04F815885453FB1E08E
:1002F0005B0790F0843FE1E09E0770F4243F61E0EB
:10030000360750F469857A85643F714028F482E5A8
:100310000E94CC0180E017C069857A85653F7140F5
:1003200070F0843F914058F4443F514040F4243FE2
:10033000314028F48CE40E94CC0180E004C083E5C5
:100340000E94CC0181E0811180CF69817A8180E0B7
:1003500090E00E94DE0220E030EC4FE754E40E947F
:100360003D0220E030E048EC52E40E946C0320E0C3
:1003700030E048EC52E40E94D1010E94AF02862F87
:100380000E94CC0162CF83E389B98AB188608AB9BF
:100390008AB180618AB908955D9BFECF8CB90895BA
:1003A0005058BB27AA270E94E8010C9432030E94F0
:1003B000240338F00E942B0320F039F49F3F19F4F6
:1003C00026F40C9421030EF4E095E7FB0C941B0338
:1003D000E92F0E94430358F3BA1762077307840793
:1003E000950720F079F4A6F50C9465030EF4E095DA
:1003F0000B2EBA2FA02D0B01B90190010C01CA01DF
:10040000A0011124FF27591B99F0593F50F4503E89
:1004100068F11A16F040A22F232F342F4427585F7B
:10042000F3CF469537952795A795F0405395C9F793
:100430007EF41F16BA0B620B730B840BBAF091504B
:10044000A1F0FF0FBB1F661F771F881FC2F70EC0EA
:10045000BA0F621F731F841F48F4879577956795BD
:10046000B795F7959E3F08F0B0CF9395880F08F0A9
:100470009927EE0F9795879508950E9451020C9445
:1004800032030E942B0358F00E94240340F029F409
:100490005F3F29F00C941B0351110C9466030C94DC
:1004A00021030E94430368F39923B1F3552391F389
:1004B000951B550BBB27AA2762177307840738F0D3
:1004C0009F5F5F4F220F331F441FAA1FA9F335D030
:1004D0000E2E3AF0E0E832D091505040E695001CE4
:1004E000CAF72BD0FE2F29D0660F771F881FBB1F9E
:1004F000261737074807AB07B0E809F0BB0B802D7C
:10050000BF01FF2793585F4F3AF09E3F510578F0A7
:100510000C941B030C9466035F3FE4F3983ED4F302
:10052000869577956795B795F7959F5FC9F7880F7B
:10053000911D9695879597F90895E1E0660F771FCD
:10054000881FBB1F621773078407BA0720F0621B5E
:10055000730B840BBA0BEE1F88F7E09508950E9489
:100560004B0388F09F5798F0B92F9927B751B0F0F7
:10057000E1F0660F771F881F991F1AF0BA95C9F727
:1005800014C0B13091F00E946503B1E008950C945D
:100590006503672F782F8827B85F39F0B93FCCF310
:1005A000869577956795B395D9F73EF490958095A4
:1005B000709561957F4F8F4F9F4F0895E89409C0C4
:1005C00097FB3EF490958095709561957F4F8F4F86
:1005D0009F4F9923A9F0F92F96E9BB279395F6959C
:1005E000879577956795B795F111F8CFFAF4BB0F1A
:1005F00011F460FF1BC06F5F7F4F8F4F9F4F16C07E
:10060000882311F096E911C0772321F09EE8872F07
:10061000762F05C0662371F096E8862F70E060E0C3
:100620002AF09A95660F771F881FDAF7880F96953C
:10063000879597F9089597F99F6780E870E060E0E3
:1006400008959FEF80EC089500240A94161617066B
:1006500018060906089500240A94121613061406B3
:1006600005060895092E0394000C11F4882352F016
:10067000BB0F40F4BF2B11F460FF04C06F5F7F4FCE
:100680008F4F9F4F089557FD9058440F551F59F0B5
:100690005F3F71F04795880F97FB991F61F09F3F6F
:1006A00079F087950895121613061406551FF2CF98
:1006B0004695F1DF08C0161617061806991FF1CFE8
:1006C00086957105610508940895E894BB2766270F
:1006D0007727CB0197F908950E947F030C9432038A
:1006E0000E94240338F00E942B0320F0952311F080
:1006F0000C941B030C94210311240C9466030E9498
:10070000430370F3959FC1F3950F50E0551F629F0F
:10071000F001729FBB27F00DB11D639FAA27F00D5A
:10072000B11DAA1F649F6627B00DA11D661F829F81
:100730002227B00DA11D621F739FB00DA11D621F66
:10074000839FA00D611D221F749F3327A00D611D83
:10075000231F849F600D211D822F762F6A2F112465
:100760009F5750409AF0F1F088234AF0EE0FFF1F98
:10077000BB1F661F771F881F91505040A9F79E3FEF
:10078000510580F00C941B030C9466035F3FE4F367
:10079000983ED4F3869577956795B795F795E79545
:1007A0009F5FC1F7FE2B880F911D9695879597F94E
:0607B0000895F894FFCF4C
:00000001FF
