:100000000C942A000C943F000C943F000C943F0089
:100010000C943F000C943F000C943F000C943F0064
:100020000C943F000C943F000C943F000C943F0054
:100030000C943F000C943F000C943F000C943F0044
:100040000C943F000C943F000C943F000C943F0034
:100050000C943F0011241FBECFE5D8E0DEBFCDBF1A
:1000600010E0A0E6B0E0EAECFDE002C005900D92E1
:10007000A63DB107D9F70E94AA030C94E3060C949D
:10008000000041E064E083E00E947C0141E065E023
:1000900083E00E947C0141E063E082E00E947C01F9
:1000A00041E065E082E00E947C0140E064E082E0A3
:1000B0000E947C0140E066E082E00E947C0108959D
:1000C00041E064E083E00E947C0141E065E083E080
:1000D0000E947C0140E063E082E00E947C0140E0FD
:1000E00065E082E00E947C0141E064E082E00E94E1
:1000F0007C0141E066E082E00E947C01089541E0DD
:1001000064E083E00E947C0140E065E083E00E94BF
:100110007C0140E063E082E00E947C0140E065E019
:1001200082E00E947C0140E064E082E00E947C0169
:1001300040E066E082E00E947C01089541E064E0D6
:1001400083E00E947C0141E065E083E00E947C0145
:1001500040E063E082E00E947C0141E065E082E0F3
:100160000E947C0141E064E082E00E947C0140E06A
:1001700066E082E00E947C01089541E064E083E053
:100180000E947C0141E065E083E00E947C0141E047
:1001900063E082E00E947C0140E065E082E00E9432
:1001A0007C0140E064E082E00E947C0141E066E086
:1001B00082E00E947C010895843008F072C06830AB
:1001C00008F06FC04130A1F5813089F028F082300D
:1001D000C9F0833011F108952AB381E090E002C0A4
:1001E000880F991F6A95E2F7822B8ABB089527B37F
:1001F00081E090E002C0880F991F6A95E2F7822B98
:1002000087BB089524B381E090E002C0880F991F56
:100210006A95E2F7822B84BB089521B381E090E0D8
:1002200002C0880F991F6A95E2F7822B81BB08955F
:10023000411137C0813091F028F08230D9F08330FD
:1002400029F108952AB381E090E002C0880F991F38
:100250006A95E2F7809582238ABB089527B381E0EF
:1002600090E002C0880F991F6A95E2F7809582237B
:1002700087BB089524B381E090E002C0880F991FE6
:100280006A95E2F78095822384BB089521B381E0CB
:1002900090E002C0880F991F6A95E2F7809582234B
:1002A00081BB0895843038F56130A1F4813049F084
:1002B00028F0823049F0833051F008958FEF8ABBE7
:1002C00008958FEF87BB08958FEF84BB08958FEF5C
:1002D00081BB089561110FC0813041F028F0823058
:1002E00039F0833039F008951ABA089517BA08958D
:1002F00014BA089511BA0895843008F072C06830B5
:1003000008F06FC04130A1F5813089F028F08230CB
:10031000C9F0833011F108952BB381E090E002C061
:10032000880F991F6A95E2F7822B8BBB089528B33B
:1003300081E090E002C0880F991F6A95E2F7822B56
:1003400088BB089525B381E090E002C0880F991F13
:100350006A95E2F7822B85BB089522B381E090E095
:1003600002C0880F991F6A95E2F7822B82BB08951D
:10037000411137C0813091F028F08230D9F08330BC
:1003800029F108952BB381E090E002C0880F991FF6
:100390006A95E2F7809582238BBB089528B381E0AC
:1003A00090E002C0880F991F6A95E2F7809582233A
:1003B00088BB089525B381E090E002C0880F991FA3
:1003C0006A95E2F78095822385BB089522B381E088
:1003D00090E002C0880F991F6A95E2F7809582230A
:1003E00082BB0895CF93C82F41E061E081E00E9475
:1003F0007C0140E062E081E00E947C01C4FB442774
:1004000040F964E080E00E947C01C5FB442740F98C
:1004100065E080E00E947C01C6FB442740F966E06D
:1004200080E00E947C014C2F441F4427441F67E05A
:1004300080E00E947C0141E063E081E00E947C0159
:100440008DEE92E00197F1F700C0000040E063E01C
:1004500081E00E947C018DEE92E00197F1F700C0EF
:1004600000004C2F417064E080E00E947C01C1FBE1
:10047000442740F965E080E00E947C01C2FB4427EC
:1004800040F966E080E00E947C01C3FB442740F90C
:1004900067E080E00E947C0141E063E081E00E942F
:1004A0007C018DEE92E00197F1F700C0000040E082
:1004B00063E081E00E947C018DEE92E00197F1F70C
:1004C00000C00000CF910895CF93C82F40E061E0B5
:1004D00081E00E947C0140E062E081E00E947C01BA
:1004E000C4FB442740F964E080E00E947C01C5FB26
:1004F000442740F965E080E00E947C01C6FB442768
:1005000040F966E080E00E947C014C2F441F4427A4
:10051000441F67E080E00E947C0141E063E081E0ED
:100520000E947C018DEE92E00197F1F700C000007F
:1005300040E063E081E00E947C018DEE92E0019753
:10054000F1F700C000004C2F417064E080E00E9491
:100550007C01C1FB442740F965E080E00E947C01FA
:10056000C2FB442740F966E080E00E947C01C3FBA7
:10057000442740F967E080E00E947C0141E063E0AD
:1005800081E00E947C018DEE92E00197F1F700C0BE
:10059000000040E063E081E00E947C018DEE92E08B
:1005A0000197F1F700C00000CF9108958BE594E426
:1005B0000197F1F700C0000082E00E94640288E227
:1005C0000E9464028DEE92E00197F1F700C00000F6
:1005D0008CE00E9464028DEE92E00197F1F700C07A
:1005E000000081E00E9464028BED95E00197F1F735
:1005F00000C0000086E00E9464028DEE92E0019748
:10060000F1F700C0000080E80E9464020895CF93D3
:10061000DF93EC0103C00E94F201219688818111D1
:10062000FACFDF91CF910895CF92DF92EF92FF92B0
:100630001F93CF93DF93CDB7DEB760970FB6F894D3
:10064000DEBF0FBECDBF6B017C0161157105810559
:10065000910521F480E30E94F20139C099235CF4F2
:10066000F094E094D094C094C11CD11CE11CF11C06
:100670008DE20E94F20110E015C0C701B6012AE028
:1006800030E040E050E00E94A206E1E0F0E0EC0F34
:10069000FD1FE10FF11D605D6083C22ED32EE42E9D
:1006A000F52E1F5F1C141D041E041F0434F30DC01F
:1006B000E12FF0E0319781E090E08C0F9D1FE80F73
:1006C000F91F80810E94F20111501111F1CF609643
:1006D0000FB6F894DEBF0FBECDBFDF91CF911F9153
:1006E000FF90EF90DF90CF90089581E00E94640228
:1006F0008BED95E00197F1F700C00000089581307F
:1007000029F480E8860F0E9464020895823021F463
:1007100080EC860F0E9464020895813021F48FE0FE
:100720000E94640208958CE00E9464020895CF93B1
:10073000DF93EC0109C00E94F20121968FE493EC53
:100740000197F1F700C0000088818111F4CFDF919B
:10075000CF910895CF93DF93CDB7DEB7A1970FB6B2
:10076000F894DEBF0FBECDBF41E064E083E00E949D
:10077000DC0041E065E083E00E94DC0061E082E0B3
:100780000E94520161E080E00E94520161E081E03C
:100790000E9452010E94D6020E9466040E948C04AC
:1007A00080E1E5EBF0E0DE01119601900D928A9573
:1007B000E1F781E1E5ECF0E0DE01519601900D9268
:1007C0008A95E1F781E00E948D03CE0101960E9497
:1007D000970360E082E00E947F03CE0141960E9471
:1007E00097032FEF8BE49DE1215080409040E1F78B
:1007F00000C0000080E00E948D030E9475030F2E50
:10080000F4E6FF2EF02D03E50E9495040817E1F3AE
:10081000F816D1F38C3461F40E949E0060E081E010
:100820000E947F0380E690E00E9407030CE4ECCF77
:10083000823561F40E94BD0060E081E00E947F0388
:1008400081E790E00E94070302E5DECF863461F481
:100850000E94410060E081E00E947F0382E890E016
:100860000E94070306E4D0CF823461F40E94600046
:1008700060E081E00E947F0383E990E00E9407032B
:1008800002E4C2CF833551F40E947F000E947503B9
:1008900084EA90E00E94070303E5B6CF1CE9180F35
:1008A000153608F0B1CF812F0E946C0460E082E021
:1008B0000E947F03612F70E080E090E00E941403AB
:1008C0008EE690E00E940703F12E9ECF81EF8FBD50
:1008D00085E08EBD19BE0895682F70E080E090E03D
:1008E0000E94A90520E030E048EC52E40E94060591
:1008F00020E030E04FE753E40E9435069B01AC0155
:1009000060E070E08FE793E40E9499040E9478050C
:100910006ABD8AB588BD089583E389B98AB18860C4
:100920008AB98AB180618AB908955F9BFECF8CB184
:1009300008955058BB27AA270E94B1040C94FB05C8
:100940000E94ED0538F00E94F40520F039F49F3F35
:1009500019F426F40C94EA050EF4E095E7FB0C94E8
:10096000E405E92F0E940C0658F3BA1762077307D3
:100970008407950720F079F4A6F50C942E060EF462
:10098000E0950B2EBA2FA02D0B01B90190010C019F
:10099000CA01A0011124FF27591B99F0593F50F4B7
:1009A000503E68F11A16F040A22F232F342F44270F
:1009B000585FF3CF469537952795A795F040539507
:1009C000C9F77EF41F16BA0B620B730B840BBAF0D7
:1009D0009150A1F0FF0FBB1F661F771F881FC2F742
:1009E0000EC0BA0F621F731F841F48F48795779556
:1009F0006795B795F7959E3F08F0B0CF9395880F10
:100A000008F09927EE0F9795879508950E941A058B
:100A10000C94FB050E94F40558F00E94ED0540F08F
:100A200029F45F3F29F00C94E40551110C942F0632
:100A30000C94EA050E940C0668F39923B1F3552340
:100A400091F3951B550BBB27AA27621773078407E1
:100A500038F09F5F5F4F220F331F441FAA1FA9F377
:100A600035D00E2E3AF0E0E832D091505040E69565
:100A7000001CCAF72BD0FE2F29D0660F771F881FC6
:100A8000BB1F261737074807AB07B0E809F0BB0BB9
:100A9000802DBF01FF2793585F4F3AF09E3F5105CD
:100AA00078F00C94E4050C942F065F3FE4F3983E35
:100AB000D4F3869577956795B795F7959F5FC9F7B6
:100AC000880F911D9695879597F90895E1E0660F37
:100AD000771F881FBB1F621773078407BA0720F0B0
:100AE000621B730B840BBA0BEE1F88F7E095089519
:100AF0000E94140688F09F5798F0B92F9927B75194
:100B0000B0F0E1F0660F771F881F991F1AF0BA95B1
:100B1000C9F714C0B13091F00E942E06B1E00895DB
:100B20000C942E06672F782F8827B85F39F0B93FCD
:100B3000CCF3869577956795B395D9F73EF4909564
:100B40008095709561957F4F8F4F9F4F0895E894E2
:100B500009C097FB3EF490958095709561957F4F05
:100B60008F4F9F4F9923A9F0F92F96E9BB279395B3
:100B7000F695879577956795B795F111F8CFFAF4C3
:100B8000BB0F11F460FF1BC06F5F7F4F8F4F9F4FF4
:100B900016C0882311F096E911C0772321F09EE852
:100BA000872F762F05C0662371F096E8862F70E0B8
:100BB00060E02AF09A95660F771F881FDAF7880F92
:100BC0009695879597F9089597F99F6780E870E063
:100BD00060E008959FEF80EC089500240A941616B3
:100BE000170618060906089500240A94121613061B
:100BF000140605060895092E0394000C11F48823A9
:100C000052F0BB0F40F4BF2B11F460FF04C06F5FC4
:100C10007F4F8F4F9F4F089557FD9058440F551F9A
:100C200059F05F3F71F04795880F97FB991F61F06E
:100C30009F3F79F087950895121613061406551FE5
:100C4000F2CF4695F1DF08C0161617061806991F51
:100C5000F1CF86957105610508940895E894BB2746
:100C600066277727CB0197F908950E9448060C94D0
:100C7000FB050E94ED0538F00E94F40520F0952355
:100C800011F00C94E4050C94EA0511240C942F0641
:100C90000E940C0670F3959FC1F3950F50E0551F0D
:100CA000629FF001729FBB27F00DB11D639FAA27C1
:100CB000F00DB11DAA1F649F6627B00DA11D661F10
:100CC000829F2227B00DA11D621F739FB00DA11D31
:100CD000621F839FA00D611D221F749F3327A00DEB
:100CE000611D231F849F600D211D822F762F6A2F87
:100CF00011249F5750409AF0F1F088234AF0EE0FEC
:100D0000FF1FBB1F661F771F881F91505040A9F718
:100D10009E3F510580F00C94E4050C942F065F3F34
:100D2000E4F3983ED4F3869577956795B795F79554
:100D3000E7959F5FC1F7FE2B880F911D96958795CC
:100D400097F90895052E97FB1EF400940E94B906AA
:100D500057FD07D00E94C10607FC03D04EF40C9447
:100D6000B90650954095309521953F4F4F4F5F4FB5
:100D7000089590958095709561957F4F8F4F9F4F07
:100D80000895A1E21A2EAA1BBB1BFD010DC0AA1FCC
:100D9000BB1FEE1FFF1FA217B307E407F50720F0E4
:100DA000A21BB30BE40BF50B661F771F881F991F5F
:100DB0001A9469F760957095809590959B01AC01A8
:0A0DC000BD01CF010895F894FFCFA4
:100DCA005455524E494E47204C4546542020202027
:100DDA00005455524E494E47205249474854202004
:100DEA0020004D4F56494E4720464F5257415244D4
:100DFA005320004D4F56494E47204241434B5741DD
:100E0A00524453004D4F544F52532053544F505055
:100E1A004544202000434F4E54524F4C4C494E47B4
:100E2A002043415200574954482048414E44204DDE
:060E3A004F54494F4E0029
:00000001FF
